{
  "address": "0x0a53968104f0F6ea2C0d6CEBA460000E28943Ca3",
  "abi": [
    {
      "inputs": [
        {
          "components": [
            {
              "internalType": "string",
              "name": "name",
              "type": "string"
            },
            {
              "internalType": "address",
              "name": "token",
              "type": "address"
            },
            {
              "internalType": "uint256",
              "name": "ethPricePerToken",
              "type": "uint256"
            },
            {
              "internalType": "uint256",
              "name": "minTokenBuy",
              "type": "uint256"
            },
            {
              "internalType": "uint256",
              "name": "maxTokenBuy",
              "type": "uint256"
            },
            {
              "internalType": "uint256",
              "name": "startDate",
              "type": "uint256"
            },
            {
              "internalType": "uint256",
              "name": "endDate",
              "type": "uint256"
            },
            {
              "internalType": "uint256",
              "name": "releaseDelay",
              "type": "uint256"
            },
            {
              "internalType": "uint256",
              "name": "vestingDuration",
              "type": "uint256"
            }
          ],
          "internalType": "struct MainLaunchpadInfo",
          "name": "_launchpadInfo",
          "type": "tuple"
        },
        {
          "internalType": "address",
          "name": "_operator",
          "type": "address"
        }
      ],
      "name": "deployLaunchpad",
      "outputs": [
        {
          "internalType": "address",
          "name": "",
          "type": "address"
        }
      ],
      "stateMutability": "nonpayable",
      "type": "function"
    }
  ],
  "transactionHash": "0x6fc9a7f3e9062b15de3440e5e5d67f4ad9c243647250d68727a656e010dea7ac",
  "args": [],
  "numDeployments": 1,
  "solcInputHash": "11abffb32e7a00b8a03dc944e2aee65f",
  "bytecode": "0x608060405234801561001057600080fd5b50612a9e806100206000396000f3fe60806040523480156200001157600080fd5b50600436106200002e5760003560e01c8063eab5df1b1462000033575b600080fd5b6200004a62000044366004620002db565b62000073565b60405173ffffffffffffffffffffffffffffffffffffffff909116815260200160405180910390f35b600080339050838173ffffffffffffffffffffffffffffffffffffffff1663b0e21e8a6040518163ffffffff1660e01b8152600401602060405180830381865afa158015620000c6573d6000803e3d6000fd5b505050506040513d601f19601f82011682018060405250810190620000ec9190620003c2565b8273ffffffffffffffffffffffffffffffffffffffff1663cce516b76040518163ffffffff1660e01b8152600401602060405180830381865afa15801562000138573d6000803e3d6000fd5b505050506040513d601f19601f820116820180604052508101906200015e9190620003dc565b85336040516200016e90620001a4565b6200017e9594939291906200044b565b604051809103906000f0801580156200019b573d6000803e3d6000fd5b50949350505050565b612514806200055583390190565b7f4e487b7100000000000000000000000000000000000000000000000000000000600052604160045260246000fd5b604051610120810167ffffffffffffffff81118282101715620002085762000208620001b2565b60405290565b600082601f8301126200022057600080fd5b813567ffffffffffffffff808211156200023e576200023e620001b2565b604051601f8301601f19908116603f01168101908282118183101715620002695762000269620001b2565b816040528381528660208588010111156200028357600080fd5b836020870160208301376000602085830101528094505050505092915050565b73ffffffffffffffffffffffffffffffffffffffff81168114620002c657600080fd5b50565b8035620002d681620002a3565b919050565b60008060408385031215620002ef57600080fd5b823567ffffffffffffffff808211156200030857600080fd5b9084019061012082870312156200031e57600080fd5b62000328620001e1565b8235828111156200033857600080fd5b62000346888286016200020e565b8252506200035760208401620002c9565b602082015260408301356040820152606083013560608201526080830135608082015260a083013560a082015260c083013560c082015260e083013560e082015261010091508183013582820152809450505050620003b960208401620002c9565b90509250929050565b600060208284031215620003d557600080fd5b5051919050565b600060208284031215620003ef57600080fd5b8151620003fc81620002a3565b9392505050565b6000815180845260005b818110156200042b576020818501810151868301820152016200040d565b506000602082860101526020601f19601f83011685010191505092915050565b60a08152600086516101208060a08501526200046c6101c085018362000403565b915060208901516200049660c086018273ffffffffffffffffffffffffffffffffffffffff169052565b50604089015160e08501526060890151610100818187015260808b01518387015260a08b015161014087015260c08b015161016087015260e08b0151610180870152808b01516101a08701525050508091505085602083015262000512604083018673ffffffffffffffffffffffffffffffffffffffff169052565b73ffffffffffffffffffffffffffffffffffffffff8416606083015273ffffffffffffffffffffffffffffffffffffffff83166080830152969550505050505056fe6101006040523480156200001257600080fd5b506040516200251438038062002514833981016040819052620000359162000368565b84516001906200004690826200050e565b506001600160a01b03811660e05260408501516000036200007a576040516359e3bc8d60e01b815260040160405180910390fd5b8460600151600003620000a0576040516318e3ae8560e31b815260040160405180910390fd5b8460800151600003620000c6576040516383f45e6160e01b815260040160405180910390fd5b428560a0015111620000eb57604051630bf784c760e01b815260040160405180910390fd5b8460a001518560c0015111620001145760405163398145cf60e11b815260040160405180910390fd5b6001600160a01b0382166200013c5760405163d92e233d60e01b815260040160405180910390fd5b600080546001600160a01b0319166001600160a01b0384811691909117909155602086810180518316608052516040805163313ce56760e01b81529051919093169263313ce5679260048083019391928290030181865afa158015620001a6573d6000803e3d6000fd5b505050506040513d601f19601f82011682018060405250810190620001cc9190620005da565b60ff1660a0819052620001e190600a6200071b565b60c090815260408601516002556060860151600455608086015160055560a08601516006558501516007555050600891909155600980546001600160a01b0319166001600160a01b0390921691909117905560e0810151600a556101000151600b5562000729565b634e487b7160e01b600052604160045260246000fd5b60405161012081016001600160401b038111828210171562000285576200028562000249565b60405290565b604051601f8201601f191681016001600160401b0381118282101715620002b657620002b662000249565b604052919050565b600082601f830112620002d057600080fd5b81516001600160401b03811115620002ec57620002ec62000249565b602062000302601f8301601f191682016200028b565b82815285828487010111156200031757600080fd5b60005b83811015620003375785810183015182820184015282016200031a565b506000928101909101919091529392505050565b80516001600160a01b03811681146200036357600080fd5b919050565b600080600080600060a086880312156200038157600080fd5b85516001600160401b03808211156200039957600080fd5b90870190610120828a031215620003af57600080fd5b620003b96200025f565b825182811115620003c957600080fd5b620003d78b828601620002be565b825250620003e8602084016200034b565b602082015260408301516040820152606083015160608201526080830151608082015260a083015160a082015260c083015160c082015260e083015160e0820152610100915081830151828201528097505050506020860151935062000451604087016200034b565b925062000461606087016200034b565b915062000471608087016200034b565b90509295509295909350565b600181811c908216806200049257607f821691505b602082108103620004b357634e487b7160e01b600052602260045260246000fd5b50919050565b601f82111562000509576000816000526020600020601f850160051c81016020861015620004e45750805b601f850160051c820191505b818110156200050557828155600101620004f0565b5050505b505050565b81516001600160401b038111156200052a576200052a62000249565b62000542816200053b84546200047d565b84620004b9565b602080601f8311600181146200057a5760008415620005615750858301515b600019600386901b1c1916600185901b17855562000505565b600085815260208120601f198616915b82811015620005ab578886015182559484019460019091019084016200058a565b5085821015620005ca5787850151600019600388901b60f8161c191681555b5050505050600190811b01905550565b600060208284031215620005ed57600080fd5b815160ff81168114620005ff57600080fd5b9392505050565b634e487b7160e01b600052601160045260246000fd5b600181815b808511156200065d57816000190482111562000641576200064162000606565b808516156200064f57918102915b93841c939080029062000621565b509250929050565b600082620006765750600162000715565b81620006855750600062000715565b81600181146200069e5760028114620006a957620006c9565b600191505062000715565b60ff841115620006bd57620006bd62000606565b50506001821b62000715565b5060208310610133831016604e8410600b8410161715620006ee575081810a62000715565b620006fa83836200061c565b806000190482111562000711576200071162000606565b0290505b92915050565b6000620005ff838362000665565b60805160a05160c05160e051611d6b620007a9600039600061063a0152600081816106ce01526115a80152600061038c01526000818161070201528181610b8501528181610bb601528181610e1801528181610ef601528181610f880152818161138f0152818161147d015281816114c201526115140152611d6b6000f3fe6080604052600436106102855760003560e01c80638988504911610153578063bc402f8f116100cb578063c47f00271161007f578063e27a248911610064578063e27a24891461069c578063e93c980d146106bc578063fc0c546a146106f057600080fd5b8063c47f00271461065c578063cce516b71461067c57600080fd5b8063c24a0f8b116100b0578063c24a0f8b146105fc578063c3a4714914610612578063c45a01551461062857600080fd5b8063bc402f8f146105d0578063bedac100146105e657600080fd5b8063a4fd6f5611610122578063afe07ce411610107578063afe07ce414610584578063b0e21e8a1461059a578063b8e0d08d146105b057600080fd5b8063a4fd6f5614610559578063ab98089f1461057157600080fd5b806389885049146104ef5780638d8f2adb1461050f578063964d86c914610524578063a0ef91df1461054457600080fd5b806344c4dcc1116102015780636ccf95fc116101b55780637195bf231161019a5780637195bf23146104ae57806374478bb3146104c457806382c30987146104d957600080fd5b80636ccf95fc146104825780636fb64e291461049857600080fd5b8063544736e6116101e6578063544736e614610406578063570ca7351461042a5780635ea5c1691461046257600080fd5b806344c4dcc1146103c457806348c54b9d146103f157600080fd5b80631514617e116102585780633044e2771161023d5780633044e2771461035a578063313ce5671461037a57806339688256146103ae57600080fd5b80631514617e146103245780632ad50ce91461033a57600080fd5b806304e869031461028a57806306fdde03146102ca5780630b97bc86146102ec5780630ffbdcaa14610302575b600080fd5b34801561029657600080fd5b506102b76102a5366004611908565b600d6020526000908152604090205481565b6040519081526020015b60405180910390f35b3480156102d657600080fd5b506102df610724565b6040516102c19190611955565b3480156102f857600080fd5b506102b760065481565b34801561030e57600080fd5b5061032261031d366004611988565b6107b2565b005b34801561033057600080fd5b506102b7600b5481565b34801561034657600080fd5b50610322610355366004611908565b610885565b34801561036657600080fd5b50610322610375366004611908565b610960565b34801561038657600080fd5b506102b77f000000000000000000000000000000000000000000000000000000000000000081565b3480156103ba57600080fd5b506102b760035481565b3480156103d057600080fd5b506102b76103df366004611908565b600c6020526000908152604090205481565b3480156103fd57600080fd5b50610322610a86565b34801561041257600080fd5b506006544210155b60405190151581526020016102c1565b34801561043657600080fd5b5060005461044a906001600160a01b031681565b6040516001600160a01b0390911681526020016102c1565b34801561046e57600080fd5b5061032261047d3660046119a1565b610c0f565b34801561048e57600080fd5b506102b760025481565b3480156104a457600080fd5b506102b760105481565b3480156104ba57600080fd5b506102b7600a5481565b3480156104d057600080fd5b5061041a610c8f565b3480156104e557600080fd5b506102b760115481565b3480156104fb57600080fd5b506102b761050a366004611908565b610ca9565b34801561051b57600080fd5b50610322610d80565b34801561053057600080fd5b5061032261053f366004611988565b610f21565b34801561055057600080fd5b50610322610fee565b34801561056557600080fd5b5060075442101561041a565b61032261057f3660046119cd565b611113565b34801561059057600080fd5b506102b760055481565b3480156105a657600080fd5b506102b760085481565b3480156105bc57600080fd5b506103226105cb366004611988565b6113e2565b3480156105dc57600080fd5b506102b7600f5481565b3480156105f257600080fd5b506102b7600e5481565b34801561060857600080fd5b506102b760075481565b34801561061e57600080fd5b506102b760045481565b34801561063457600080fd5b5061044a7f000000000000000000000000000000000000000000000000000000000000000081565b34801561066857600080fd5b50610322610677366004611a58565b611566565b34801561068857600080fd5b5060095461044a906001600160a01b031681565b3480156106a857600080fd5b506102b76106b7366004611988565b61159d565b3480156106c857600080fd5b506102b77f000000000000000000000000000000000000000000000000000000000000000081565b3480156106fc57600080fd5b5061044a7f000000000000000000000000000000000000000000000000000000000000000081565b6001805461073190611b09565b80601f016020809104026020016040519081016040528092919081815260200182805461075d90611b09565b80156107aa5780601f1061077f576101008083540402835291602001916107aa565b820191906000526020600020905b81548152906001019060200180831161078d57829003601f168201915b505050505081565b6000546001600160a01b031633146107dd5760405163b2e661d760e01b815260040160405180910390fd5b600754421061084d576040517f08c379a000000000000000000000000000000000000000000000000000000000815260206004820152601060248201527f4c61756e63687061643a20454e4445440000000000000000000000000000000060448201526064015b60405180910390fd5b6040518181527fe41050a384bb8564f1f0f7deee716caf1c0a20a94b147933a4a217427fceaace9060200160405180910390a1600b55565b60075442106108c0576040517f477383f300000000000000000000000000000000000000000000000000000000815260040160405180910390fd5b336000908152600c6020526040808220546001600160a01b03841683529120546005546108ed8383611b59565b1115610925576040517f6a93ecd900000000000000000000000000000000000000000000000000000000815260040160405180910390fd5b336000908152600c60205260408082208290556001600160a01b038516825281208054849290610956908490611b59565b9091555050505050565b6000546001600160a01b0316331461098b5760405163b2e661d760e01b815260040160405180910390fd5b6001600160a01b0381166109cb576040517fd92e233d00000000000000000000000000000000000000000000000000000000815260040160405180910390fd5b6000546001600160a01b0390811690821603610a13576040517f0d7ba3a600000000000000000000000000000000000000000000000000000000815260040160405180910390fd5b600080546040516001600160a01b03808516939216917f74da04524d50c64947f5dd5381ef1a4dca5cba8ed1d816243f9e48aa0b5617ed91a3600080547fffffffffffffffffffffffff0000000000000000000000000000000000000000166001600160a01b0392909216919091179055565b610a8e610c8f565b610ac4576040517f6247a84e00000000000000000000000000000000000000000000000000000000815260040160405180910390fd5b336000908152600c60205260408120549003610b0c576040517f5dd9982e00000000000000000000000000000000000000000000000000000000815260040160405180910390fd5b6000610b1733610ca9565b905080600003610b53576040517fb8d485a500000000000000000000000000000000000000000000000000000000815260040160405180910390fd5b336000908152600d602052604081208054839290610b72908490611b59565b90915550610bac90506001600160a01b037f00000000000000000000000000000000000000000000000000000000000000001633836115dd565b60405181815233907f00000000000000000000000000000000000000000000000000000000000000006001600160a01b0316907fa86305abc2db271df4609aa86a8d044bc11fb36939841bfdad6c1ab2b26e94719060200160405180910390a350565b6000546001600160a01b03163314610c3a5760405163b2e661d760e01b815260040160405180910390fd5b600f8390556010829055601181905560408051848152602081018490529081018290527f48a56cad4f4700b5cec54bb868120f657d71333d300cfbdd06d52c0920f21d039060600160405180910390a1505050565b6000600a54600754610ca19190611b59565b421015905090565b6000610cb3610c8f565b610cbf57506000919050565b6001600160a01b0382166000908152600c6020908152604080832054600d9092528220549091610cef8284611b6c565b9050600b5460001480610d1e5750600b54600a54600754610d109190611b59565b610d1a9190611b59565b4210155b15610d2b57949350505050565b6000600b54600a5460075442610d419190611b6c565b610d4b9190611b6c565b610d559086611b7f565b610d5f9190611b96565b905083811115610d6c5750825b610d768382611b6c565b9695505050505050565b6000546001600160a01b03163314610dab5760405163b2e661d760e01b815260040160405180910390fd5b600754421015610de7576040517fd3018d1800000000000000000000000000000000000000000000000000000000815260040160405180910390fd5b6040517f70a082310000000000000000000000000000000000000000000000000000000081523060048201526000907f00000000000000000000000000000000000000000000000000000000000000006001600160a01b0316906370a0823190602401602060405180830381865afa158015610e67573d6000803e3d6000fd5b505050506040513d601f19601f82011682018060405250810190610e8b9190611bb8565b600e5490915081811115610ea25760009150610eaf565b610eac8183611b6c565b91505b60008211610ee9576040517fbbd8170800000000000000000000000000000000000000000000000000000000815260040160405180910390fd5b610f1d6001600160a01b037f00000000000000000000000000000000000000000000000000000000000000001633846115dd565b5050565b6000546001600160a01b03163314610f4c5760405163b2e661d760e01b815260040160405180910390fd5b80600003610f86576040517f59e3bc8d00000000000000000000000000000000000000000000000000000000815260040160405180910390fd5b7f00000000000000000000000000000000000000000000000000000000000000006001600160a01b03167f5a618a77896880d7865b0093eac54a86e9bad19c67a4870cf1bf46420c041d8782604051610fe191815260200190565b60405180910390a2600255565b6000546001600160a01b031633146110195760405163b2e661d760e01b815260040160405180910390fd5b600754421015611055576040517fd3018d1800000000000000000000000000000000000000000000000000000000815260040160405180910390fd5b476000819003611091576040517fbbd8170800000000000000000000000000000000000000000000000000000000815260040160405180910390fd5b604051600090339083908381818185875af1925050503d80600081146110d3576040519150601f19603f3d011682016040523d82523d6000602084013e6110d8565b606091505b5050905080610f1d576040517f53a7326b00000000000000000000000000000000000000000000000000000000815260040160405180910390fd5b60065442101561114f576040517f6f312cbd00000000000000000000000000000000000000000000000000000000815260040160405180910390fd5b600754421061118a576040517f477383f300000000000000000000000000000000000000000000000000000000815260040160405180910390fd5b346000036111c4576040517f384dbe5a00000000000000000000000000000000000000000000000000000000815260040160405180910390fd5b6000600f5411801561122157506011546040805133602082015261121f92859285920160408051601f198184030181528282528051602091820120908301520160405160208183030381529060405280519060200120611656565b155b15611258576040517fa26e706500000000000000000000000000000000000000000000000000000000815260040160405180910390fd5b60006112633461159d565b90506004548110156112a1576040517f1fbaba3500000000000000000000000000000000000000000000000000000000815260040160405180910390fd5b600554336000908152600c60205260409020546112bf908390611b59565b11156112f7576040517f6a93ecd900000000000000000000000000000000000000000000000000000000815260040160405180910390fd5b60035481600e546113089190611b59565b1115611340576040517fc11132a700000000000000000000000000000000000000000000000000000000815260040160405180910390fd5b336000908152600c60205260408120805483929061135f908490611b59565b9250508190555080600e60008282546113789190611b59565b909155505060405181815233906001600160a01b037f000000000000000000000000000000000000000000000000000000000000000016907ff9b4eb3e43eebbf559e9b96ceff1c786a7edab2938c7f5f80678197c2e0edba59060200160405180910390a3505050565b6000546001600160a01b0316331461140d5760405163b2e661d760e01b815260040160405180910390fd5b80600003611447576040517fe690acde00000000000000000000000000000000000000000000000000000000815260040160405180910390fd5b60006127106008548361145a9190611b7f565b6114649190611b96565b905080156114b5576009546114a8906001600160a01b037f00000000000000000000000000000000000000000000000000000000000000008116913391168461166e565b6114b28183611b6c565b91505b6114ea6001600160a01b037f00000000000000000000000000000000000000000000000000000000000000001633308561166e565b81600360008282546114fc9190611b59565b90915550506003546040519081526001600160a01b037f000000000000000000000000000000000000000000000000000000000000000016907fa3b7fca9670bb037363dfd4e1a7f841adac6df1f3ce5a23a57fedce69b400f1c9060200160405180910390a25050565b6000546001600160a01b031633146115915760405163b2e661d760e01b815260040160405180910390fd5b6001610f1d8282611c21565b6002546000906115cd7f000000000000000000000000000000000000000000000000000000000000000084611b7f565b6115d79190611b96565b92915050565b6040516001600160a01b0383811660248301526044820183905261165191859182169063a9059cbb906064015b604051602081830303815290604052915060e01b6020820180517bffffffffffffffffffffffffffffffffffffffffffffffffffffffff83818316178352505050506116ad565b505050565b600082611664868685611729565b1495945050505050565b6040516001600160a01b0384811660248301528381166044830152606482018390526116a79186918216906323b872dd9060840161160a565b50505050565b60006116c26001600160a01b0384168361176d565b905080516000141580156116e75750808060200190518101906116e59190611ce1565b155b15611651576040517f5274afe70000000000000000000000000000000000000000000000000000000081526001600160a01b0384166004820152602401610844565b600081815b84811015611762576117588287878481811061174c5761174c611d03565b9050602002013561177b565b915060010161172e565b5090505b9392505050565b6060611766838360006117aa565b6000818310611797576000828152602084905260409020611766565b6000838152602083905260409020611766565b6060814710156117e8576040517fcd786059000000000000000000000000000000000000000000000000000000008152306004820152602401610844565b600080856001600160a01b031684866040516118049190611d19565b60006040518083038185875af1925050503d8060008114611841576040519150601f19603f3d011682016040523d82523d6000602084013e611846565b606091505b5091509150610d7686838360608261186657611861826118c6565b611766565b815115801561187d57506001600160a01b0384163b155b156118bf576040517f9996b3150000000000000000000000000000000000000000000000000000000081526001600160a01b0385166004820152602401610844565b5080611766565b8051156118d65780518082602001fd5b6040517f1425ea4200000000000000000000000000000000000000000000000000000000815260040160405180910390fd5b60006020828403121561191a57600080fd5b81356001600160a01b038116811461176657600080fd5b60005b8381101561194c578181015183820152602001611934565b50506000910152565b6020815260008251806020840152611974816040850160208701611931565b601f01601f19169190910160400192915050565b60006020828403121561199a57600080fd5b5035919050565b6000806000606084860312156119b657600080fd5b505081359360208301359350604090920135919050565b600080602083850312156119e057600080fd5b823567ffffffffffffffff808211156119f857600080fd5b818501915085601f830112611a0c57600080fd5b813581811115611a1b57600080fd5b8660208260051b8501011115611a3057600080fd5b60209290920196919550909350505050565b634e487b7160e01b600052604160045260246000fd5b600060208284031215611a6a57600080fd5b813567ffffffffffffffff80821115611a8257600080fd5b818401915084601f830112611a9657600080fd5b813581811115611aa857611aa8611a42565b604051601f8201601f19908116603f01168101908382118183101715611ad057611ad0611a42565b81604052828152876020848701011115611ae957600080fd5b826020860160208301376000928101602001929092525095945050505050565b600181811c90821680611b1d57607f821691505b602082108103611b3d57634e487b7160e01b600052602260045260246000fd5b50919050565b634e487b7160e01b600052601160045260246000fd5b808201808211156115d7576115d7611b43565b818103818111156115d7576115d7611b43565b80820281158282048414176115d7576115d7611b43565b600082611bb357634e487b7160e01b600052601260045260246000fd5b500490565b600060208284031215611bca57600080fd5b5051919050565b601f821115611651576000816000526020600020601f850160051c81016020861015611bfa5750805b601f850160051c820191505b81811015611c1957828155600101611c06565b505050505050565b815167ffffffffffffffff811115611c3b57611c3b611a42565b611c4f81611c498454611b09565b84611bd1565b602080601f831160018114611c845760008415611c6c5750858301515b600019600386901b1c1916600185901b178555611c19565b600085815260208120601f198616915b82811015611cb357888601518255948401946001909101908401611c94565b5085821015611cd15787850151600019600388901b60f8161c191681555b5050505050600190811b01905550565b600060208284031215611cf357600080fd5b8151801515811461176657600080fd5b634e487b7160e01b600052603260045260246000fd5b60008251611d2b818460208701611931565b919091019291505056fea2646970667358221220719fbe9d6399073574d8257a9620f05f0a414729fea970933747a995c1641e3564736f6c63430008170033a26469706673582212205f22d2fb8ab96eca41b5665de3837693ae9cfe52ba52bc1a73ca7d2b45ecf75064736f6c63430008170033",
  "devdoc": {
    "kind": "dev",
    "methods": {},
    "version": 1
  },
  "userdoc": {
    "kind": "user",
    "methods": {},
    "version": 1
  },
  "storageLayout": {
    "storage": [],
    "types": null
  }
}