{
  "address": "0x7f9da88321Cc5eE680bf6CD7E1D8a3bCB27A3eE5",
  "abi": [
    {
      "inputs": [
        {
          "internalType": "address",
          "name": "_protocolFeeAddress",
          "type": "address"
        },
        {
          "internalType": "uint256",
          "name": "_protocolFee",
          "type": "uint256"
        },
        {
          "internalType": "address",
          "name": "_deployer",
          "type": "address"
        }
      ],
      "stateMutability": "nonpayable",
      "type": "constructor"
    },
    {
      "inputs": [],
      "name": "InvalidProtocolFee",
      "type": "error"
    },
    {
      "inputs": [
        {
          "internalType": "address",
          "name": "owner",
          "type": "address"
        }
      ],
      "name": "OwnableInvalidOwner",
      "type": "error"
    },
    {
      "inputs": [
        {
          "internalType": "address",
          "name": "account",
          "type": "address"
        }
      ],
      "name": "OwnableUnauthorizedAccount",
      "type": "error"
    },
    {
      "inputs": [],
      "name": "ZeroAddress",
      "type": "error"
    },
    {
      "anonymous": false,
      "inputs": [
        {
          "indexed": false,
          "internalType": "address",
          "name": "oldDeployer",
          "type": "address"
        },
        {
          "indexed": false,
          "internalType": "address",
          "name": "newDeployer",
          "type": "address"
        }
      ],
      "name": "DeployerUpdated",
      "type": "event"
    },
    {
      "anonymous": false,
      "inputs": [
        {
          "indexed": true,
          "internalType": "address",
          "name": "launchpad",
          "type": "address"
        },
        {
          "indexed": true,
          "internalType": "address",
          "name": "token",
          "type": "address"
        }
      ],
      "name": "LaunchpadCreated",
      "type": "event"
    },
    {
      "anonymous": false,
      "inputs": [
        {
          "indexed": true,
          "internalType": "address",
          "name": "previousOwner",
          "type": "address"
        },
        {
          "indexed": true,
          "internalType": "address",
          "name": "newOwner",
          "type": "address"
        }
      ],
      "name": "OwnershipTransferred",
      "type": "event"
    },
    {
      "anonymous": false,
      "inputs": [
        {
          "indexed": false,
          "internalType": "address",
          "name": "oldProtocolFeeAddress",
          "type": "address"
        },
        {
          "indexed": false,
          "internalType": "address",
          "name": "newProtocolFeeAddress",
          "type": "address"
        }
      ],
      "name": "ProtocolFeeAddressUpdated",
      "type": "event"
    },
    {
      "anonymous": false,
      "inputs": [
        {
          "indexed": true,
          "internalType": "address",
          "name": "protocolFeeAddress",
          "type": "address"
        },
        {
          "indexed": false,
          "internalType": "uint256",
          "name": "newProtocolFee",
          "type": "uint256"
        }
      ],
      "name": "ProtocolFeeUpdated",
      "type": "event"
    },
    {
      "inputs": [
        {
          "internalType": "address",
          "name": "_address",
          "type": "address"
        }
      ],
      "name": "addTrusted",
      "outputs": [],
      "stateMutability": "nonpayable",
      "type": "function"
    },
    {
      "inputs": [
        {
          "components": [
            {
              "internalType": "string",
              "name": "name",
              "type": "string"
            },
            {
              "internalType": "address",
              "name": "token",
              "type": "address"
            },
            {
              "internalType": "uint256",
              "name": "ethPricePerToken",
              "type": "uint256"
            },
            {
              "internalType": "uint256",
              "name": "minTokenBuy",
              "type": "uint256"
            },
            {
              "internalType": "uint256",
              "name": "maxTokenBuy",
              "type": "uint256"
            },
            {
              "internalType": "uint256",
              "name": "startDate",
              "type": "uint256"
            },
            {
              "internalType": "uint256",
              "name": "endDate",
              "type": "uint256"
            },
            {
              "internalType": "uint256",
              "name": "releaseDelay",
              "type": "uint256"
            },
            {
              "internalType": "uint256",
              "name": "vestingDuration",
              "type": "uint256"
            }
          ],
          "internalType": "struct MainLaunchpadInfo",
          "name": "_mainLaunchpadInfo",
          "type": "tuple"
        }
      ],
      "name": "createLaunchpad",
      "outputs": [
        {
          "internalType": "address",
          "name": "",
          "type": "address"
        }
      ],
      "stateMutability": "nonpayable",
      "type": "function"
    },
    {
      "inputs": [],
      "name": "deployer",
      "outputs": [
        {
          "internalType": "contract ILaunchpadDeployer",
          "name": "",
          "type": "address"
        }
      ],
      "stateMutability": "view",
      "type": "function"
    },
    {
      "inputs": [
        {
          "internalType": "address",
          "name": "",
          "type": "address"
        }
      ],
      "name": "isTrusted",
      "outputs": [
        {
          "internalType": "bool",
          "name": "",
          "type": "bool"
        }
      ],
      "stateMutability": "view",
      "type": "function"
    },
    {
      "inputs": [
        {
          "internalType": "uint256",
          "name": "index",
          "type": "uint256"
        }
      ],
      "name": "launchpadAtIndex",
      "outputs": [
        {
          "internalType": "address",
          "name": "",
          "type": "address"
        }
      ],
      "stateMutability": "view",
      "type": "function"
    },
    {
      "inputs": [],
      "name": "launchpads",
      "outputs": [
        {
          "internalType": "address[]",
          "name": "",
          "type": "address[]"
        }
      ],
      "stateMutability": "view",
      "type": "function"
    },
    {
      "inputs": [],
      "name": "launchpadsLength",
      "outputs": [
        {
          "internalType": "uint256",
          "name": "",
          "type": "uint256"
        }
      ],
      "stateMutability": "view",
      "type": "function"
    },
    {
      "inputs": [],
      "name": "owner",
      "outputs": [
        {
          "internalType": "address",
          "name": "",
          "type": "address"
        }
      ],
      "stateMutability": "view",
      "type": "function"
    },
    {
      "inputs": [],
      "name": "protocolFee",
      "outputs": [
        {
          "internalType": "uint256",
          "name": "",
          "type": "uint256"
        }
      ],
      "stateMutability": "view",
      "type": "function"
    },
    {
      "inputs": [],
      "name": "protocolFeeAddress",
      "outputs": [
        {
          "internalType": "address",
          "name": "",
          "type": "address"
        }
      ],
      "stateMutability": "view",
      "type": "function"
    },
    {
      "inputs": [
        {
          "internalType": "address",
          "name": "_address",
          "type": "address"
        }
      ],
      "name": "removeTrusted",
      "outputs": [],
      "stateMutability": "nonpayable",
      "type": "function"
    },
    {
      "inputs": [],
      "name": "renounceOwnership",
      "outputs": [],
      "stateMutability": "nonpayable",
      "type": "function"
    },
    {
      "inputs": [
        {
          "internalType": "address",
          "name": "_deployer",
          "type": "address"
        }
      ],
      "name": "setDeployer",
      "outputs": [],
      "stateMutability": "nonpayable",
      "type": "function"
    },
    {
      "inputs": [
        {
          "internalType": "address",
          "name": "newOwner",
          "type": "address"
        }
      ],
      "name": "transferOwnership",
      "outputs": [],
      "stateMutability": "nonpayable",
      "type": "function"
    },
    {
      "inputs": [],
      "name": "trustedLaunchpads",
      "outputs": [
        {
          "internalType": "address[]",
          "name": "",
          "type": "address[]"
        }
      ],
      "stateMutability": "view",
      "type": "function"
    },
    {
      "inputs": [
        {
          "internalType": "uint256",
          "name": "_protocolFee",
          "type": "uint256"
        }
      ],
      "name": "updateProtocolFee",
      "outputs": [],
      "stateMutability": "nonpayable",
      "type": "function"
    },
    {
      "inputs": [
        {
          "internalType": "address",
          "name": "_protocolFeeAddress",
          "type": "address"
        }
      ],
      "name": "updateProtocolFeeAddress",
      "outputs": [],
      "stateMutability": "nonpayable",
      "type": "function"
    }
  ],
  "transactionHash": "0x00e43ad4edb4d38d65ad48ad224aa27c5a0d787687e87373b2da222670ec2f6a",
  "args": [
    "0x3cE0e1433Ce02f1a1D868ef5ECB2f3F24b703E6F",
    500,
    "0x6A1D28ac53c2d24E316A120885729A34D8A0B37A"
  ],
  "numDeployments": 1,
  "solcInputHash": "82810f0a110e0dd1145a6f70a56f6ff1",
  "bytecode": "0x608060405234801561001057600080fd5b50604051610e3c380380610e3c83398101604081905261002f9161015e565b338061005557604051631e4fbdf760e01b81526000600482015260240160405180910390fd5b61005e816100f2565b506001600160a01b038116158061007c57506001600160a01b038316155b1561009a5760405163d92e233d60e01b815260040160405180910390fd5b6103e88211156100bd57604051631752ff0760e31b815260040160405180910390fd5b600380546001600160a01b039485166001600160a01b031991821617909155600680549290941691161790915560045561019a565b600080546001600160a01b038381166001600160a01b0319831681178455604051919092169283917f8be0079c531659141344cd1fd0a4f28419497f9722a3daafe3b4186f6b6457e09190a35050565b80516001600160a01b038116811461015957600080fd5b919050565b60008060006060848603121561017357600080fd5b61017c84610142565b92506020840151915061019160408501610142565b90509250925092565b610c93806101a96000396000f3fe608060405234801561001057600080fd5b506004361061011b5760003560e01c806396214735116100b2578063cce516b711610081578063d55e62a011610066578063d55e62a01461024c578063d5f394881461025f578063f2fde38b1461027257600080fd5b8063cce516b714610226578063d4d0d6e61461023957600080fd5b806396214735146101c457806396d64879146101d7578063b0e21e8a1461020a578063b61609ab1461021357600080fd5b80636d554b69116100ee5780636d554b6914610178578063715018a6146101a35780638da5cb5b146101ab5780639050b93f146101bc57600080fd5b80634256dd781461012057806344081ed6146101355780634cb6995a146101505780636b7822b014610163575b600080fd5b61013361012e3660046108d2565b610285565b005b61013d610313565b6040519081526020015b60405180910390f35b61013361015e366004610910565b610324565b61016b6103ed565b604051610147919061092d565b61018b610186366004610a60565b6104cd565b6040516001600160a01b039091168152602001610147565b6101336105c0565b6000546001600160a01b031661018b565b61016b6105d4565b6101336101d2366004610910565b610673565b6101fa6101e5366004610910565b60056020526000908152604090205460ff1681565b6040519015158152602001610147565b61013d60045481565b61018b6102213660046108d2565b6106b5565b60035461018b906001600160a01b031681565b610133610247366004610910565b6106c8565b61013361025a366004610910565b6106f4565b60065461018b906001600160a01b031681565b610133610280366004610910565b61071d565b61028d610779565b6103e88111156102c9576040517fba97f83800000000000000000000000000000000000000000000000000000000815260040160405180910390fd5b60048190556003546040518281526001600160a01b03909116907f389f6e01d911ce2a6919bdcf4e57d270003243ca9c54e7911454a70f89aee19e9060200160405180910390a250565b600061031f60016107bf565b905090565b61032c610779565b6001600160a01b03811661036c576040517fd92e233d00000000000000000000000000000000000000000000000000000000815260040160405180910390fd5b600354604080516001600160a01b03928316815291831660208301527f2b991854ec779922cb385225c2e8e9b1b0c269f09ffc7a2265a596c5d7d70b62910160405180910390a1600380547fffffffffffffffffffffffff0000000000000000000000000000000000000000166001600160a01b0392909216919091179055565b606060006103fb60016107bf565b905060008167ffffffffffffffff8111156104185761041861097a565b604051908082528060200260200182016040528015610441578160200160208202803683370190505b50905060005b828110156104c6576005600061045e6001846107c9565b6001600160a01b0316815260208101919091526040016000205460ff16156104be5761048b6001826107c9565b82828151811061049d5761049d610b2b565b60200260200101906001600160a01b031690816001600160a01b0316815250505b600101610447565b5092915050565b6006546040517feab5df1b00000000000000000000000000000000000000000000000000000000815260009182916001600160a01b039091169063eab5df1b9061051d9086903390600401610ba0565b6020604051808303816000875af115801561053c573d6000803e3d6000fd5b505050506040513d601f19601f820116820180604052508101906105609190610c40565b905061056d6001826107dc565b61057657600080fd5b82602001516001600160a01b0316816001600160a01b03167f12f4f726e3d40b72a8eba977c6858d0fe014165116e5d458ebf1c41386f4180f60405160405180910390a392915050565b6105c8610779565b6105d260006107f1565b565b606060006105e260016107bf565b905060008167ffffffffffffffff8111156105ff576105ff61097a565b604051908082528060200260200182016040528015610628578160200160208202803683370190505b50905060005b828110156104c6576106416001826107c9565b82828151811061065357610653610b2b565b6001600160a01b039092166020928302919091019091015260010161062e565b61067b610779565b600680547fffffffffffffffffffffffff0000000000000000000000000000000000000000166001600160a01b0392909216919091179055565b60006106c26001836107c9565b92915050565b6106d0610779565b6001600160a01b03166000908152600560205260409020805460ff19166001179055565b6106fc610779565b6001600160a01b03166000908152600560205260409020805460ff19169055565b610725610779565b6001600160a01b03811661076d576040517f1e4fbdf7000000000000000000000000000000000000000000000000000000008152600060048201526024015b60405180910390fd5b610776816107f1565b50565b6000546001600160a01b031633146105d2576040517f118cdaa7000000000000000000000000000000000000000000000000000000008152336004820152602401610764565b60006106c2825490565b60006107d58383610859565b9392505050565b60006107d5836001600160a01b038416610883565b600080546001600160a01b038381167fffffffffffffffffffffffff0000000000000000000000000000000000000000831681178455604051919092169283917f8be0079c531659141344cd1fd0a4f28419497f9722a3daafe3b4186f6b6457e09190a35050565b600082600001828154811061087057610870610b2b565b9060005260206000200154905092915050565b60008181526001830160205260408120546108ca575081546001818101845560008481526020808220909301849055845484825282860190935260409020919091556106c2565b5060006106c2565b6000602082840312156108e457600080fd5b5035919050565b6001600160a01b038116811461077657600080fd5b803561090b816108eb565b919050565b60006020828403121561092257600080fd5b81356107d5816108eb565b6020808252825182820181905260009190848201906040850190845b8181101561096e5783516001600160a01b031683529284019291840191600101610949565b50909695505050505050565b7f4e487b7100000000000000000000000000000000000000000000000000000000600052604160045260246000fd5b604051610120810167ffffffffffffffff811182821017156109cd576109cd61097a565b60405290565b600082601f8301126109e457600080fd5b813567ffffffffffffffff808211156109ff576109ff61097a565b604051601f8301601f19908116603f01168101908282118183101715610a2757610a2761097a565b81604052838152866020858801011115610a4057600080fd5b836020870160208301376000602085830101528094505050505092915050565b600060208284031215610a7257600080fd5b813567ffffffffffffffff80821115610a8a57600080fd5b908301906101208286031215610a9f57600080fd5b610aa76109a9565b823582811115610ab657600080fd5b610ac2878286016109d3565b825250610ad160208401610900565b602082015260408301356040820152606083013560608201526080830135608082015260a083013560a082015260c083013560c082015260e083013560e08201526101009150818301358282015280935050505092915050565b7f4e487b7100000000000000000000000000000000000000000000000000000000600052603260045260246000fd5b6000815180845260005b81811015610b8057602081850181015186830182015201610b64565b506000602082860101526020601f19601f83011685010191505092915050565b6040815260008351610120806040850152610bbf610160850183610b5a565b91506020860151610bdb60608601826001600160a01b03169052565b5060408601516080850152606086015160a0850152608086015160c085015260a086015160e085015260c0860151610100818187015260e08801518387015280880151610140870152505050809150506107d560208301846001600160a01b03169052565b600060208284031215610c5257600080fd5b81516107d5816108eb56fea26469706673582212209c1788cfaa4f2448e9898aa4a61cb001ed95315869221468c873bc39fbc784fa64736f6c63430008170033",
  "devdoc": {
    "errors": {
      "OwnableInvalidOwner(address)": [
        {
          "details": "The owner is not a valid owner account. (eg. `address(0)`)"
        }
      ],
      "OwnableUnauthorizedAccount(address)": [
        {
          "details": "The caller account is not authorized to perform an operation."
        }
      ]
    },
    "kind": "dev",
    "methods": {
      "owner()": {
        "details": "Returns the address of the current owner."
      },
      "renounceOwnership()": {
        "details": "Leaves the contract without owner. It will not be possible to call `onlyOwner` functions. Can only be called by the current owner. NOTE: Renouncing ownership will leave the contract without an owner, thereby disabling any functionality that is only available to the owner."
      },
      "transferOwnership(address)": {
        "details": "Transfers ownership of the contract to a new account (`newOwner`). Can only be called by the current owner."
      }
    },
    "version": 1
  },
  "userdoc": {
    "kind": "user",
    "methods": {},
    "version": 1
  },
  "storageLayout": {
    "storage": [
      {
        "astId": 8,
        "contract": "contracts/LaunchpadFactory.sol:LaunchpadFactory",
        "label": "_owner",
        "offset": 0,
        "slot": "0",
        "type": "t_address"
      },
      {
        "astId": 3653,
        "contract": "contracts/LaunchpadFactory.sol:LaunchpadFactory",
        "label": "_launchpads",
        "offset": 0,
        "slot": "1",
        "type": "t_struct(AddressSet)2375_storage"
      },
      {
        "astId": 3655,
        "contract": "contracts/LaunchpadFactory.sol:LaunchpadFactory",
        "label": "protocolFeeAddress",
        "offset": 0,
        "slot": "3",
        "type": "t_address"
      },
      {
        "astId": 3657,
        "contract": "contracts/LaunchpadFactory.sol:LaunchpadFactory",
        "label": "protocolFee",
        "offset": 0,
        "slot": "4",
        "type": "t_uint256"
      },
      {
        "astId": 3661,
        "contract": "contracts/LaunchpadFactory.sol:LaunchpadFactory",
        "label": "isTrusted",
        "offset": 0,
        "slot": "5",
        "type": "t_mapping(t_address,t_bool)"
      },
      {
        "astId": 3664,
        "contract": "contracts/LaunchpadFactory.sol:LaunchpadFactory",
        "label": "deployer",
        "offset": 0,
        "slot": "6",
        "type": "t_contract(ILaunchpadDeployer)4035"
      }
    ],
    "types": {
      "t_address": {
        "encoding": "inplace",
        "label": "address",
        "numberOfBytes": "20"
      },
      "t_array(t_bytes32)dyn_storage": {
        "base": "t_bytes32",
        "encoding": "dynamic_array",
        "label": "bytes32[]",
        "numberOfBytes": "32"
      },
      "t_bool": {
        "encoding": "inplace",
        "label": "bool",
        "numberOfBytes": "1"
      },
      "t_bytes32": {
        "encoding": "inplace",
        "label": "bytes32",
        "numberOfBytes": "32"
      },
      "t_contract(ILaunchpadDeployer)4035": {
        "encoding": "inplace",
        "label": "contract ILaunchpadDeployer",
        "numberOfBytes": "20"
      },
      "t_mapping(t_address,t_bool)": {
        "encoding": "mapping",
        "key": "t_address",
        "label": "mapping(address => bool)",
        "numberOfBytes": "32",
        "value": "t_bool"
      },
      "t_mapping(t_bytes32,t_uint256)": {
        "encoding": "mapping",
        "key": "t_bytes32",
        "label": "mapping(bytes32 => uint256)",
        "numberOfBytes": "32",
        "value": "t_uint256"
      },
      "t_struct(AddressSet)2375_storage": {
        "encoding": "inplace",
        "label": "struct EnumerableSet.AddressSet",
        "members": [
          {
            "astId": 2374,
            "contract": "contracts/LaunchpadFactory.sol:LaunchpadFactory",
            "label": "_inner",
            "offset": 0,
            "slot": "0",
            "type": "t_struct(Set)2060_storage"
          }
        ],
        "numberOfBytes": "64"
      },
      "t_struct(Set)2060_storage": {
        "encoding": "inplace",
        "label": "struct EnumerableSet.Set",
        "members": [
          {
            "astId": 2055,
            "contract": "contracts/LaunchpadFactory.sol:LaunchpadFactory",
            "label": "_values",
            "offset": 0,
            "slot": "0",
            "type": "t_array(t_bytes32)dyn_storage"
          },
          {
            "astId": 2059,
            "contract": "contracts/LaunchpadFactory.sol:LaunchpadFactory",
            "label": "_positions",
            "offset": 0,
            "slot": "1",
            "type": "t_mapping(t_bytes32,t_uint256)"
          }
        ],
        "numberOfBytes": "64"
      },
      "t_uint256": {
        "encoding": "inplace",
        "label": "uint256",
        "numberOfBytes": "32"
      }
    }
  }
}